:020000040800F2
:1000000000100020852100088106000885060008F0
:1000100000000000000000000000000000000000E0
:100020000000000000000000000000008906000839
:1000300000000000000000008D0600089106000886
:10004000D521000800000000D5210008D5210008B6
:10005000D5210008D5210008D5210008D5210008A8
:100060000000000099060008A9060008D521000834
:10007000D5210008D5210008D52100080000000086
:10008000D52100080000000000000000D521000874
:1000900000000000D5210008D5210008D521000866
:1000A00000000000D521000800000000D521000854
:1000B0000000000000000000000000000000000040
:1000C00010B5064C2378002B07D1054B002B02D02E
:1000D000044800E000BF0123237010BD040000208D
:1000E0000000000048220008084B10B5002B03D088
:1000F0000749084800E000BF07480368002B00D10B
:1001000010BD064B002BFBD09847F9E7000000001C
:100110000800002048220008040000200000000021
:10012000002243088B4274D303098B425FD3030A36
:100130008B4244D3030B8B4228D3030C8B420DD349
:10014000FF22090212BA030C8B4202D312120902D7
:1001500065D0030B8B4219D300E0090AC30B8B4215
:1001600001D3CB03C01A5241830B8B4201D38B03C3
:10017000C01A5241430B8B4201D34B03C01A524168
:10018000030B8B4201D30B03C01A5241C30A8B42AB
:1001900001D3CB02C01A5241830A8B4201D38B0296
:1001A000C01A5241430A8B4201D34B02C01A52413A
:1001B000030A8B4201D30B02C01A5241CDD2C309AC
:1001C0008B4201D3CB01C01A524183098B4201D328
:1001D0008B01C01A524143098B4201D34B01C01A13
:1001E000524103098B4201D30B01C01A5241C3088B
:1001F0008B4201D3CB00C01A524183088B4201D3FA
:100200008B00C01A524143088B4201D34B00C01AE5
:100210005241411A00D20146524110467047FFE751
:1002200001B5002000F0F0F802BDC0460029F7D06B
:1002300076E7704703460B437FD4002243088B4286
:1002400074D303098B425FD3030A8B4244D3030B5D
:100250008B4228D3030C8B420DD3FF22090212BA22
:10026000030C8B4202D31212090265D0030B8B429E
:1002700019D300E0090AC30B8B4201D3CB03C01A88
:100280005241830B8B4201D38B03C01A5241430B63
:100290008B4201D34B03C01A5241030B8B4201D353
:1002A0000B03C01A5241C30A8B4201D3CB02C01ABE
:1002B0005241830A8B4201D38B02C01A5241430A36
:1002C0008B4201D34B02C01A5241030A8B4201D325
:1002D0000B02C01A5241CDD2C3098B4201D3CB01CC
:1002E000C01A524183098B4201D38B01C01A52417B
:1002F00043098B4201D34B01C01A524103098B427F
:1003000001D30B01C01A5241C3088B4201D3CB0069
:10031000C01A524183088B4201D38B00C01A52414C
:1003200043088B4201D34B00C01A5241411A00D2FC
:1003300001465241104670475DE0CA0F00D0494265
:10034000031000D34042534000229C4603098B42D5
:100350002DD3030A8B4212D3FC22890112BA030A5D
:100360008B420CD3890192118B4208D389019211DF
:100370008B4204D389013AD0921100E08909C30964
:100380008B4201D3CB01C01A524183098B4201D366
:100390008B01C01A524143098B4201D34B01C01A51
:1003A000524103098B4201D30B01C01A5241C308C9
:1003B0008B4201D3CB00C01A524183088B4201D338
:1003C0008B00C01A5241D9D243088B4201D34B0053
:1003D000C01A5241411A00D20146634652415B1095
:1003E000104601D34042002B00D549427047634676
:1003F0005B1000D3404201B5002000F005F802BDBB
:100400000029F8D016E770477047C04682B0064A08
:10041000516980239B021943516152691340019332
:10042000019B02B07047C0460010024000B583B087
:100430000D4A516901200143516153690340019301
:10044000019B00220021083001F014FE092001F078
:1004500043FE002200210A2001F00CFE0A2001F0D8
:100460003BFE03B000BDC0460010024070B584B032
:100470000C22002101A801F0DEFE144C144B236075
:1004800000256560A560E56001262661042363619F
:10049000A561E56126626562C223FF33A362E5625E
:1004A00026636663200000F06BFA019580235B01F0
:1004B00002930523039301A9200000F0C9FB0196D4
:1004C00001A9200000F0C4FB04B070BDA001002011
:1004D0000024014010B50948094B036096231B0214
:1004E000436000238360C36003610C224261836127
:1004F000C3610362436200F0E1FF10BDEC00002025
:100500000038014030B58BB00822002108A801F066
:1005100092FE1C22002101A801F08DFE124C134B0B
:10052000236000256560A560E5602561A561200068
:1005300000F07CFD0895099508A9200000F04EFE0A
:100540000195029503950595002201A9200000F070
:10055000C5FD042201A9200000F0C0FD200000F02C
:1005600025F90BB030BDC046240000200004004037
:1005700030B595B03022002108A801F05CFE1024AF
:100580001022002104A801F056FE10220021684626
:1005900001F051FE1223089301250B950D950C9443
:1005A0000E940E3C1094A0239B03129308A800F015
:1005B000BBFF0723049305940024069407940121AC
:1005C00004A801F025FA00950294684601F0E6FAC5
:1005D00015B030BD10B501F081FBFFF7C9FFFFF783
:1005E00015FFFFF723FFFFF741FFFFF773FFFFF74B
:1005F00089FF054C200000F0C5FB042203492000C0
:1006000000F080FAFEE7C046A00100202000002094
:1006100030B589B0164B984228D1164B5D881C889E
:100620001C22002101A801F006FE23002D3BFF3B08
:10063000AB4204DA0021104800F08CFD16E0A54220
:1006400014D2641B4620604396214900FFF7F2FD57
:1006500080B2462800D946201E3083B29B009BB250
:100660000293002201A9044800F038FD09B030BD12
:10067000A001002020000020240000207047C04678
:100680007047C046FEE7C0467047C0467047C04648
:1006900010B501F033FB10BD10B5024801F094FC19
:1006A00010BDC0465C01002010B5034801F08CFC71
:1006B000024801F089FC10BD64000020A800002061
:1006C00082B00A4B99690120014399619A690240FD
:1006D0000092009AD969802252051143D961DB69E1
:1006E0001A400192019B02B07047C04600100240C0
:1006F00010B588B004001422002103A801F09BFD6E
:100700001C4B22689A4233D11B4B9969802292007C
:100710001143996199690A400192019A59698022AD
:100720009202114359615B691A400292029B0323B2
:100730000393049303A99020C00501F0EDFA0F483C
:100740000F4B03600023436083608022C2608032CD
:1007500002618022D200426120228261C36101F0E5
:10076000C9FB002801D0FFF789FF044BE3635C62FB
:1007700008B010BD00240140001002405C010020C0
:100780000800024082B00268064B9A4208D1064A2D
:10079000D16902200143D161D36903400193019BD8
:1007A00002B07047000400400010024010B586B04F
:1007B00004001422002101A801F03DFD22680D4B28
:1007C0009A4214D10C4A516980239B02194351610A
:1007D000526913400093009BC0230193BE3B0293D8
:1007E000013B059301A99020C00501F095FA06B0E0
:1007F00010BDC046000400400010024010B588B093
:1008000004001422002103A801F015FD284B2268E2
:100810009A424AD1274B99698022D20111439961AA
:1008200099690A400192019A596980229202114302
:1008300059615B691A400292029B0C2303930A3BA5
:10084000049301330693023B079303A99020C0054C
:1008500001F062FA1848194B03600023436083607B
:100860008022C260036143618361C36101F042FB86
:10087000002801D0FFF702FF0F4B63665C6210484F
:10088000104B036010234360002383608022C2600A
:10089000036143618361C36101F02CFB002801D037
:1008A000FFF7ECFE064B23665C6208B010BDC04645
:1008B0000038014000100240A80000203000024033
:1008C000640000201C00024030B583B00400002307
:1008D00001930268936803210B40012B07D1136831
:1008E000DB0706D4D3681B0405D4002304E00023EF
:1008F00002E0012300E00123002B37D191681D4B5A
:10090000194209D0626C102313436364A26C012363
:100910001343A36401202AE0916801230B439360F1
:10092000154B18681549FFF7FBFB019002E0019B8E
:10093000013B0193019B002BF9D101F0E7F9050080
:100940000EE001F0E3F9401B022809D9626C102384
:1009500013436364A26C01231343A364012006E0E4
:1009600023681B68DB07ECD5002000E0002003B003
:1009700030BDC046170000800000002040420F003C
:1009800070B5041E00D1B4E0436C002B04D1836425
:1009900040228354FFF7ACFE636CDB0600D5A2E077
:1009A0002268936804210B4000D09CE0606C52499F
:1009B0000140022001436164916801300140012936
:1009C00007D11168C90706D4D168090405D40021EC
:1009D00004E0002102E0012100E0012100290CD106
:1009E000D16818208143A0680143D16021680A6959
:1009F00092009208606802430A612168C8683F4A11
:100A00000240CA60A2699103E269D2030A43206AE4
:100A100041030A43616B012902D08021490100E0B2
:100A200019000A43E1680A432169022900D104231D
:100A30001343226B52001343626A012A0DD100282E
:100A400003D180225202134307E0616C20220A4343
:100A50006264A16C01220A43A264A26AC221FF312E
:100A60008A4202D0E16A0A4313432168CA681A43E2
:100A7000CA60A26B802149058A420DD0012A0BD0A1
:100A8000022A09D0032A07D0042A05D0052A03D058
:100A9000062A01D0072A0AD120684169072291431A
:100AA000416121684869A56B2A4002434A61226876
:100AB000D168134A0A40934209D10023A364636CAE
:100AC00003229343023A13436364002012E0636CF1
:100AD00012229343023A13436364A26C012313432B
:100AE000A364012006E0626C1023134363640120B9
:100AF00000E0012070BDC046FDFEFFFF1902FEFFB1
:100B0000E7FF3F83F8B504000E00170003689B68F9
:100B10005B073FD44023C35C012B3DD0012240231F
:100B2000C254C369012B03D0FFF7CEFE050000E0DD
:100B30000025002D32D1626C194B134080225200E7
:100B4000134363640023A364C03AA354E36B154AC0
:100B50009A62E36B144ADA62E36B144A1A632368FD
:100B60001C221A602268516810230B4353602268CC
:100B7000D16801230B43D360216840313B00320030
:100B8000E06B01F0E5F92268916804230B43936060
:100B9000280004E0022002E0022000E02800F8BD66
:100BA000FEF0FFFFB10B0008250C0008350C000813
:100BB00010B5436A5A6C502111422AD15A6CB13196
:100BC000FF310A435A641A68D068C02109010842FB
:100BD0001BD1196A002918D11168090715D5916828
:100BE00049070AD451680C2081435160596C0B4A63
:100BF0000A4001210A435A6407E0596C20220A4343
:100C00005A64996C01220A439A641800FFF700FDA8
:100C100002E0DB6B1B6B984710BDC046FEFEFFFF7A
:100C20007047C04610B5406AFFF7FAFF10BDC046D6
:100C30007047C04610B5406A426C4023134343647A
:100C4000826C042313438364FFF7F2FF10BDC04698
:100C500030B583B00400002301934033C35C012B03
:100C600000D180E001224023C25403689A685207F1
:100C70006AD43E4A486890424FD0986A01220D6873
:100C8000AA4002439A62A36B8022520593421ED06F
:100C9000012B1CD0022B1AD0032B18D0042B16D0FA
:100CA000052B14D0062B12D0072B10D022685369C5
:100CB000072003408868984209D050690723984369
:100CC0005061226850698D682B40034353610B6863
:100CD0001A00103A012A3DD8254A1268102B02D179
:100CE00080231B0401E08023DB031343204A1360AD
:100CF0000B68102B30D11F4B18681F49FFF710FAF3
:100D0000830018184300019302E0019B013B01930B
:100D1000019B002BF9D1002021E09A6A01200D6887
:100D2000A84082439A620B681A00103A012A15D82B
:100D30000F4A1268102B01D1104B00E0104B1340EA
:100D40000B4A136000200AE0426C202313434364E3
:100D5000012004E0002002E0002000E0002000224A
:100D60004023E25400E0022003B030BD0110000037
:100D7000082701400000002040420F00FFFF7FFFD6
:100D8000FFFFBFFF70B504004023C35C012B55D0AB
:100D900001224023C2540268936803210B40012BB7
:100DA00007D11368DB0706D4D3681B0405D40023DE
:100DB00004E0002302E0012300E00123002B34D1F2
:100DC000616C1F4B0B4002210B436364D6680131F9
:100DD0000E40D3688B43D360226893688021090654
:100DE0000B43936000F092FF05000FE000F08EFFD0
:100DF000401B02280AD9636C12229343023A134320
:100E0000636400224023E254012018E023689A68BA
:100E1000002AEBDBDA681643DE60636C032293433F
:100E2000023A13436364002004E0626C20231343FE
:100E30006364012000224023E25400E0022070BDE0
:100E4000FDFEFFFF30B5036A012293430362036A8C
:100E5000446882697325AA430D682A430225AB437F
:100E60008D682B43114DA84205D0114DA84202D0E8
:100E7000104DA84205D10825AB43CD682B4304256E
:100E8000AB430A4DA84205D0094DA84202D0094DF6
:100E9000A84205D1084D2C404D692C438D692C4347
:100EA000446082614A684263036230BD002C0140A5
:100EB0000044014000480140FFFCFFFF30B5026ADA
:100EC000174B13400362026A4468C56973239D434C
:100ED0000B681D43134B13408A6812021343124AD6
:100EE000904206D1114A1340CA6812021343104AB5
:100EF00013400D4A904205D00E4A904202D00E4A4D
:100F0000904207D10D4A14404A69120114438A697C
:100F1000120114434460C5614A68C263036230BD74
:100F2000FFFEFFFFFFFDFFFF002C0140FFF7FFFF6B
:100F3000FFFBFFFF0044014000480140FFCFFFFFDF
:100F400070B5026A114B13400362066A4568C469B2
:100F50000F4A14400B681A0214430E4B33408A6840
:100F6000120313430C4A904205D00C4A904202D01F
:100F70000B4A904204D10B4A15404A69920115432D
:100F80004560C4614A680264036270BDFFEFFFFF01
:100F9000FF8CFFFFFFDFFFFF002C014000440140FA
:100FA00000480140FFBFFFFF03681A4A904202D089
:100FB000194A904203D1702293434A681343154A59
:100FC00090420BD0144A904208D0144A904205D067
:100FD000134A904202D0134A904203D1124A13405E
:100FE000CA681343802293434A69134303608B68A2
:100FF000C3620B688362074B984205D0084B984246
:1010000002D0084B984201D10B690363012343616D
:101010007047C046002C0140000400400020004002
:101020000044014000480140FFFCFFFF70B5041E72
:1010300013D03D23C35C002B04D100223C33C254A7
:10104000FFF7A0FB3D2502236355211D2068FFF714
:10105000ABFF01236355002000E0012070BDC046B6
:1010600030B5036A102293430362036A45688469BA
:10107000154A14400A6812021443202293438A68D6
:1010800012011343114A904206D180229343CA6849
:1010900012011343402293430C4A904205D00C4A5C
:1010A000904202D00B4A904207D10B4A15404A6940
:1010B000920015438A6992001543456084614A682D
:1010C0008263036230BDC046FF8CFFFF002C0140ED
:1010D0000044014000480140FFF3FFFF10B5040049
:1010E0003C23C35C012B27D001203C23E05401307A
:1010F0000133E054042A0CD002D8002A05D013E0B2
:10110000082A0AD00C2A0CD00EE02068FFF79AFEBD
:101110000AE02068FFF7A4FF06E02068FFF7CEFE94
:1011200002E02068FFF70CFF01223D23E254002279
:10113000013BE254002000E0022010BD10B5012464
:101140008C40036AA3430362036A8A401A43026223
:1011500010BDC04610B5040000220068FFF7EEFF86
:101160002368184A934207D0174A934206D0174A79
:10117000934205D1012204E0012202E0012200E0B5
:101180000022002A0BD0196A114A114207D1196AAC
:10119000104A114203D1596C0F4A0A405A6423681D
:1011A000196A0B4A114207D1196A0A4A114203D13E
:1011B0001A6801218A431A6001223D23E25400206B
:1011C00010BDC046002C01400044014000480140D1
:1011D0001111000044040000FF7FFFFFF0B53C2325
:1011E000C35C012B1ED03C22012585543D240223E3
:1011F0000355066873687027BB437360066873689D
:101200000F683B4373600668B3688027BB43B360D5
:101210000668B7684B683B43B360055500238354A9
:10122000002000E00220F0BD70B504008368026970
:10123000134342691343C1691943006803685B4A59
:1012400013400B43036022685168594B0B40E1681F
:101250000B435360A169236A194320688368554A88
:1012600013400B438360544B1B6B03221340012B31
:1012700008D0002B04D0022B06D0032B08D005E0A9
:10128000002306E0042304E0082302E0102300E02A
:10129000022380221202E169914245D1022B14D02F
:1012A00002D8002B05D033E0042B19D0082B23D013
:1012B0002EE000F063FC400063685B08C0186168C2
:1012C000FEF72EFF83B2002024E0636858083B4BF2
:1012D0009C4660446168FEF723FF83B2002019E05A
:1012E00000F062FB400063685B08C0186168FEF7AD
:1012F00017FF83B200200DE06368580880235B026B
:101300009C4660446168FEF70BFF83B2002001E059
:10131000012000230F22190091435A100723134084
:101320000B432268D36040E0022B15D002D8002B7B
:1013300005D039E0042B1CD0082B27D034E02568D9
:1013400000F01CFC61684B08C018FEF7E9FE0004C1
:10135000000CE860002028E0256861684808184B08
:101360009C466044FEF7DCFE0004000CE8600020B0
:101370001BE0256800F018FB61684B08C018FEF7F9
:10138000CFFE0004000CE86000200EE025686168D4
:10139000480880231B029C466044FEF7C1FE0004FF
:1013A000000CE860002000E0012070BDF369FFFF41
:1013B000FFCFFFFFFFF4FFFF001002400024F40006
:1013C00000127A00436ADB0706D5026851682C4B8D
:1013D0000B40816A0B435360436A9B0706D5026842
:1013E0005168284B0B40C16A0B435360436A5B074B
:1013F00006D502685168244B0B40016B0B435360C8
:10140000436A1B0706D502685168204B0B40416BAD
:101410000B435360436ADB0606D5026891681C4B98
:101420000B40816B0B439360436A9B0606D50268B1
:101430009168184B0B40C16B0B439360436A5B068A
:1014400012D502685168144B0B40016C0B4353607A
:1014500080235B03026C9A4206D1026851680F4BED
:101460000B40416C0B435360436A1B0606D5016871
:101470004A680B4B1340826C13434B607047C04665
:10148000FFFFFDFFFFFFFEFFFFFFFBFFFF7FFFFFF3
:10149000FFEFFFFFFFDFFFFFFFFFEFFFFFFF9FFFFC
:1014A000FFFFF7FF0023C366202269214254013168
:1014B00042544832835400207047C04610B5041E81
:1014C0002ED06923C35C002B04D100226833C254A0
:1014D000FFF794F924226923E2542268136801215A
:1014E0008B4313602000FFF79FFE012819D0636A29
:1014F000002B02D02000FFF765FF22685168094BDE
:101500000B4053602268936808218B4393602268E4
:10151000116801230B4313602000FFF7C3FF00E0B5
:10152000012010BDFFF7FFFF70B582B00400036813
:10153000DB0763D5C44B5B680C221340042B08D037
:10154000C14B5B681340082B0BD1BF4B5B68DB03BF
:1015500007D5BD4B1B689B0350D56368002B4DD14D
:10156000F7E16368012B06D1B74A1368802149026D
:101570000B43136022E0002B09D1B34B1968B34A27
:101580000A401A601968B24A0A401A6016E0052B30
:101590000BD1AD4B1A688021C9020A431A601A6840
:1015A000802149020A431A6008E0A74B1968A74A3C
:1015B0000A401A601968A64A0A401A606368002B3C
:1015C0000ED000F0A3FB050005E000F09FFB401BE0
:1015D000642800D9BFE19C4B1B689B03F5D50DE047
:1015E00000F094FB050005E000F090FB401B642830
:1015F00000D9B2E1944B1B689B03F5D423689B0789
:1016000050D5914B5B680C221A4208D08E4B5B6818
:101610001340082B14D18C4B5B68DB0310D48A4B2E
:101620001B689B0703D5E368012B00D097E186492F
:101630000B68F82293432269D20013430B6031E018
:10164000E368002B1BD0804A116801230B43136011
:1016500000F05CFB050005E000F058FB401B022891
:1016600000D97EE1784B1B689B07F5D576490B685E
:10167000F82293432269D20013430B6012E0724AAE
:10168000136801218B43136000F040FB050005E067
:1016900000F03CFB401B022800D964E16A4B1B6848
:1016A0009B07F5D423681B0729D5E369002B13D0CA
:1016B000654A516A01230B43536200F027FB050082
:1016C00005E000F023FB401B022800D94DE15E4BF2
:1016D0005B6A9B07F5D512E05B4A536A01218B4395
:1016E000536200F013FB050005E000F00FFB401B08
:1016F000022800D93BE1544B5B6A9B07F5D4236871
:101700005B077AD5504BDB69DB000BD44E4AD169BD
:1017100080235B051943D161D26913400193019B7A
:10172000012500E000254B4B1B68DB0513D4494A1B
:101730001368802149000B43136000F0E7FA0600AC
:1017400005E000F0E3FA801B642800D911E1414B69
:101750001B68DB05F5D5A368012B04D13A4A116A51
:101760000B43136220E0002B09D1374B1A6A012189
:101770008A431A621A6A03318A431A6214E0052BFB
:1017800009D1314B196A04220A431A62196A0122EB
:101790000A431A6208E02C4B1A6A01218A431A6232
:1017A0001A6A03318A431A62A368002B0FD000F033
:1017B000ADFA060006E000F0A9FA801B264B98421D
:1017C00000D9D8E0204B1B6A9B07F4D50EE000F04F
:1017D0009DFA060006E000F099FA801B1E4B984225
:1017E00000D9CAE0184B1B6A9B07F4D4012D04D121
:1017F000154AD169194B0B40D3612368DB0654D5D8
:101800006369012B2CD1104B596B04220A435A6394
:10181000596B01220A435A6300F078FA050005E08B
:1018200000F074FA401B022800D9A8E0064B5B6B5D
:101830009B07F5D504494B6BF82293431A00A36923
:10184000DB0013434B6330E000100240FFFFFEFF5C
:10185000FFFFFBFF0070004088130000FFFFFFEF59
:1018600005330CD14D494B6B042293434B634B6BB7
:10187000F4329343A269D20013434B6315E0474B04
:10188000596B04220A435A635A6B01218A435A63F3
:1018900000F03CFA050004E000F038FA401B022892
:1018A0006FD83E4B5B6B9B07F6D4236A002B6AD044
:1018B0003A4A52680C210A40082A66D0022B34D1D9
:1018C000364A1168364B0B40136000F01FFA0500D2
:1018D00004E000F01BFA401B022858D82F4B1B686D
:1018E0009B01F6D42D4BDA6A0F218A43E16A0A4341
:1018F000DA6258682B4A1040A26A616A0A430243BE
:101900005A601A68802149040A431A6000F0FEF9FF
:10191000040004E000F0FAF9001B022839D81F4B3C
:101920001B689B01F6D5002036E01C4A11681C4B51
:101930000B40136000F0EAF9040004E000F0E6F95F
:10194000001B022827D8154B1B689B01F6D40020EA
:1019500022E0012020E003201EE003201CE0012003
:101960001AE0032018E0032016E0032014E003200F
:1019700012E0032010E003200EE003200CE003201F
:101980000AE0032008E0002006E0012004E0032034
:1019900002E0032000E0032002B070BD001002400E
:1019A000FFFFFFFEFFFFC2FF10B588B0144C1022EE
:1019B000210004A800F036FC2100103110226846F6
:1019C00000F030FC0F4B5A680C231340082B13D146
:1019D000910C0F20014004AB5C5C0A4BDB6A0340B6
:1019E0006946C95CD30304D50748FEF799FB6043F9
:1019F00003E00648604300E0034808B010BDC0465D
:101A0000602200080010024000127A0000093D0028
:101A100070B505000C00504B1B68012213408B422F
:101A200009D24D4A136801218B4323431360136885
:101A30000B409C427FD12B689B0706D5474A5368D1
:101A4000F0218B43A9680B4353602B68DB0747D514
:101A50006A68012A04D1414B1B689B030BD46CE0DC
:101A6000022A04D13D4B1B689B0104D467E03B4B29
:101A70001B689B0765D539494B6803208343134393
:101A80004B6000F043F906006B68012B0DD105E0B7
:101A900000F03CF9801B324B984254D82F4B5B68C6
:101AA0000C221340042BF3D11AE0022B13D105E0D2
:101AB00000F02CF9801B2A4B984246D8274B5B68D4
:101AC0000C221340082BF3D10AE000F01FF9801B11
:101AD000234B98423BD8214B5B680C221A42F4D12D
:101AE0001D4B1B68012213409C4209D21A4A1368FD
:101AF00001218B432343136013680B409C4228D180
:101B00002B685B0706D515494A68164B1340EA68EF
:101B100013434B60FFF748FF104B5B681B090F2214
:101B20001340114AD35CD840104B1860002000F0DD
:101B3000C3F800200EE001200CE001200AE00120A3
:101B400008E0012006E0032004E0032002E0032077
:101B500000E0012070BDC04600200240001002409D
:101B600088130000FFF8FFFF80220008000000201B
:101B7000014B18687047C0460000002010B5FFF701
:101B8000F7FF044B5B681B0A07221340024AD35C31
:101B9000D84010BD001002409022000870B582B0FD
:101BA00004000368DB035ED53D4BDB69DB000BD42F
:101BB0003B4AD16980235B051943D161D269134047
:101BC0000193019B012500E00025364B1B68DB05D6
:101BD00012D4344A1368802149000B43136000F08B
:101BE00095F8060004E000F091F8801B642850D8B6
:101BF0002C4B1B68DB05F6D5294B1A6AC0239B00CA
:101C0000134023D0C022920061680A4093421DD045
:101C1000234B186A244A0240196A8026760231430F
:101C200019621E6A2149314019621A62C3070DD533
:101C300000F06CF8060005E000F068F8801B1C4B13
:101C4000984228D8164B1B6A9B07F5D5144A116A8F
:101C5000154B0B4061680B431362012D03D1D16911
:101C6000144B0B40D3612368DB0706D50C4A136B7A
:101C700003218B43A1680B43136323689B060CD598
:101C800007490B6B10229343E26813430B63002058
:101C900004E0032002E0032000E0002002B070BD59
:101CA0000010024000700040FFFCFFFFFFFFFEFF3E
:101CB00088130000FFFFFFEF10B50400FFF758FF87
:101CC000FA218900FEF72CFA00F010FA0022210018
:101CD0000120404200F0CEF9002010BD10B5064AA8
:101CE000116810230B4313600020FFF7E5FFFEF798
:101CF000E7FC002010BDC04600200240024A1368E5
:101D0000013313607047C046EC010020014B186896
:101D10007047C046EC010020F0B5474680B482B061
:101D20000023A8E001249C40A046224000D1A1E06D
:101D30004D68022D01D0122D0FD1DF080837BF00EA
:101D40003E5807251D40AD000F24AC40A643B446C5
:101D50000E69AE40654635433D5004685F0003257B
:101D60002E00BE40F6433440A4464C682540BD409A
:101D70006446254305604D686C1E012C03D9112D66
:101D800001D0122D13D185683540AC46CD68BD40D9
:101D900064462543856045684446A543AC464C6887
:101DA000250901242C409C4065462C434460C468AE
:101DB00026408C68BC402643C6604C68E40059D578
:101DC000314DAE6901273E43AE61AC693C400194A0
:101DD000019C9C08A51CAD002C4EAF5903251D404D
:101DE000AD000F26AE40B7439026F605B0420AD0AC
:101DF000274EB04209D0274EB04208D0264EB042FE
:101E000007D1032606E0002604E0012602E00226B0
:101E100000E00526AE4035003D430234A4001B4ED1
:101E2000A5511E4C2568D44326002E404F68FF0361
:101E300001D515432E00194D2E606D682E002640E9
:101E40004F68BF0301D515432E00144D6E60AD6879
:101E50002E0026404F68FF0201D515432E000F4D7E
:101E6000AE60ED682C404E68B60201D52A431400DE
:101E70000A4AD46001330A681400DC4000D051E7FC
:101E800002B004BC9046F0BD0010024000000140CA
:101E90000004004800080048000C0048000401400D
:101EA00070B5C56B0124066CB4406C600468636057
:101EB0004368102B04D103689A600368D96003E07B
:101EC000036899600368DA6070BDC04610B504000D
:101ED0000368064A9446634418001421FEF720F96B
:101EE00080002064024BE36310BDC046F8FFFDBFD5
:101EF0000000024070B5041E25D021250223435561
:101F000000680168114B19406368A2681343E268D6
:101F100013432269134362691343A2691343E269BD
:101F20001A430B00134303602000FFF7CFFF002389
:101F3000A362E36223636363A363012262551F32DA
:101F4000A354002000E0012070BDC0460FC0FFFF79
:101F500070B504002020205C012832D0012520200B
:101F600025540130205C012826D10135203025542C
:101F70000020A063256828680126B043286020005F
:101F8000FFF78EFFE36A002B05D0226811680E234D
:101F90000B43136009E0226811680A230B431360A6
:101FA0002268136804218B4313602268116801239F
:101FB0000B431360002005E000222023E25402209E
:101FC00000E0022070BDC04670B5C36B1A6804689B
:101FD0002568016C04238B40134212D06B0710D587
:101FE00023689B0603D42368042293432360C26BB7
:101FF0000423016C8B405360C36A002B38D0984790
:1020000036E002238B40134218D0AB0716D5236865
:102010009B0606D423680A2293432360093A2123AE
:10202000C254C26B0223016C8B40536000222023F8
:10203000C254836A002B1BD0984719E008238B40B9
:10204000134215D02B0713D523680E229343236028
:10205000C26B01231900046CA140516083632122EB
:10206000835400221F33C254036B002B00D09847C7
:1020700070BDC04670B5002817DAC0B20F23034008
:10208000083B9B0806339B00114A944663445A68F8
:1020900003242040C000FC3425008540AA43890168
:1020A000214081401143596010E08308094DC0333D
:1020B0009B005C5903221040C000FF263200824082
:1020C00094438901314081402143595170BDC0463C
:1020D00000ED00E000E100E01F2318401E3B8340BC
:1020E000014A13607047C04600E100E001380A4B26
:1020F00098420FD8094A506009490B6A1B021B0A13
:10210000C020000603430B62002393600733136073
:10211000002000E001207047FFFFFF0010E000E01A
:1021200000ED00E0114B1A6801210A431A6058685B
:102130000F4A02405A6018680E4A02401A60186836
:102140000D4A02401A6058680C4A02405A60DA6A26
:102150000F208243DA62186B094A02401A635A6BF5
:102160008A435A6300229A607047C04600100240BA
:102170000CB8FF08FFFFF6FEFFFFFBFFFFFFC0FFED
:10218000ECFEFFFF0D4885460D480E490E4A002320
:1021900002E0D458C4500433C4188C42F9D30B4A1B
:1021A0000B4C002301E013600432A242FBD3FFF783
:1021B000B9FF00F011F8FEF70DFAFEE7001000205D
:1021C0000000002004000020A022000804000020DD
:1021D000F0010020FEE700000E4B70B500251E0048
:1021E0000D4CE41AA410A54204D0AB00F358984754
:1021F0000135F8E700F028F8084B00251E00084CD0
:10220000E41AA410A54204D0AB00F3589847013556
:10221000F8E770BD9822000898220008982200086C
:102220009C220008002310B59A4203D0CC5CC45411
:102230000133F9E710BD03008218934202D01970F0
:102240000133FAE770470000F8B5C046F8BC08BC97
:102250009E467047F8B5C046F8BC08BC9E4670471D
:1022600002030405060708090A0B0C0D0E0F1010D7
:102270000102030405060708090A0B0C0D0E0F10D6
:102280000000000000000000010203040607080926
:0822900000000000010203043C
:04229800E900000851
:04229C00C100000875
:0422A00000127A00AE
:040000050800218549
:00000001FF
